{
  "contractName": "KycNFT",
  "abi": [
    {
      "inputs": [
        {
          "internalType": "string",
          "name": "name",
          "type": "string"
        },
        {
          "internalType": "string",
          "name": "symbol",
          "type": "string"
        },
        {
          "internalType": "string",
          "name": "version",
          "type": "string"
        },
        {
          "internalType": "address",
          "name": "owner",
          "type": "address"
        }
      ],
      "stateMutability": "nonpayable",
      "type": "constructor"
    },
    {
      "inputs": [],
      "name": "BadSignature",
      "type": "error"
    },
    {
      "inputs": [
        {
          "internalType": "address",
          "name": "sender",
          "type": "address"
        },
        {
          "internalType": "uint256",
          "name": "tokenId",
          "type": "uint256"
        },
        {
          "internalType": "address",
          "name": "owner",
          "type": "address"
        }
      ],
      "name": "ERC721IncorrectOwner",
      "type": "error"
    },
    {
      "inputs": [
        {
          "internalType": "address",
          "name": "operator",
          "type": "address"
        },
        {
          "internalType": "uint256",
          "name": "tokenId",
          "type": "uint256"
        }
      ],
      "name": "ERC721InsufficientApproval",
      "type": "error"
    },
    {
      "inputs": [
        {
          "internalType": "address",
          "name": "approver",
          "type": "address"
        }
      ],
      "name": "ERC721InvalidApprover",
      "type": "error"
    },
    {
      "inputs": [
        {
          "internalType": "address",
          "name": "operator",
          "type": "address"
        }
      ],
      "name": "ERC721InvalidOperator",
      "type": "error"
    },
    {
      "inputs": [
        {
          "internalType": "address",
          "name": "owner",
          "type": "address"
        }
      ],
      "name": "ERC721InvalidOwner",
      "type": "error"
    },
    {
      "inputs": [
        {
          "internalType": "address",
          "name": "receiver",
          "type": "address"
        }
      ],
      "name": "ERC721InvalidReceiver",
      "type": "error"
    },
    {
      "inputs": [
        {
          "internalType": "address",
          "name": "sender",
          "type": "address"
        }
      ],
      "name": "ERC721InvalidSender",
      "type": "error"
    },
    {
      "inputs": [
        {
          "internalType": "uint256",
          "name": "tokenId",
          "type": "uint256"
        }
      ],
      "name": "ERC721NonexistentToken",
      "type": "error"
    },
    {
      "inputs": [],
      "name": "InvalidShortString",
      "type": "error"
    },
    {
      "inputs": [],
      "name": "OnlyOneNFTPerAddress",
      "type": "error"
    },
    {
      "inputs": [
        {
          "internalType": "address",
          "name": "owner",
          "type": "address"
        }
      ],
      "name": "OwnableInvalidOwner",
      "type": "error"
    },
    {
      "inputs": [
        {
          "internalType": "address",
          "name": "account",
          "type": "address"
        }
      ],
      "name": "OwnableUnauthorizedAccount",
      "type": "error"
    },
    {
      "inputs": [],
      "name": "SignatureExpired",
      "type": "error"
    },
    {
      "inputs": [
        {
          "internalType": "string",
          "name": "str",
          "type": "string"
        }
      ],
      "name": "StringTooLong",
      "type": "error"
    },
    {
      "anonymous": false,
      "inputs": [
        {
          "indexed": true,
          "internalType": "address",
          "name": "owner",
          "type": "address"
        },
        {
          "indexed": true,
          "internalType": "address",
          "name": "approved",
          "type": "address"
        },
        {
          "indexed": true,
          "internalType": "uint256",
          "name": "tokenId",
          "type": "uint256"
        }
      ],
      "name": "Approval",
      "type": "event"
    },
    {
      "anonymous": false,
      "inputs": [
        {
          "indexed": true,
          "internalType": "address",
          "name": "owner",
          "type": "address"
        },
        {
          "indexed": true,
          "internalType": "address",
          "name": "operator",
          "type": "address"
        },
        {
          "indexed": false,
          "internalType": "bool",
          "name": "approved",
          "type": "bool"
        }
      ],
      "name": "ApprovalForAll",
      "type": "event"
    },
    {
      "anonymous": false,
      "inputs": [],
      "name": "EIP712DomainChanged",
      "type": "event"
    },
    {
      "anonymous": false,
      "inputs": [
        {
          "indexed": true,
          "internalType": "address",
          "name": "previousOwner",
          "type": "address"
        },
        {
          "indexed": true,
          "internalType": "address",
          "name": "newOwner",
          "type": "address"
        }
      ],
      "name": "OwnershipTransferred",
      "type": "event"
    },
    {
      "anonymous": false,
      "inputs": [
        {
          "indexed": true,
          "internalType": "address",
          "name": "from",
          "type": "address"
        },
        {
          "indexed": true,
          "internalType": "address",
          "name": "to",
          "type": "address"
        },
        {
          "indexed": true,
          "internalType": "uint256",
          "name": "tokenId",
          "type": "uint256"
        }
      ],
      "name": "Transfer",
      "type": "event"
    },
    {
      "inputs": [],
      "name": "MINT_TYPEHASH",
      "outputs": [
        {
          "internalType": "bytes32",
          "name": "",
          "type": "bytes32"
        }
      ],
      "stateMutability": "view",
      "type": "function"
    },
    {
      "inputs": [],
      "name": "TRANSFER_FROM_TYPEHASH",
      "outputs": [
        {
          "internalType": "bytes32",
          "name": "",
          "type": "bytes32"
        }
      ],
      "stateMutability": "view",
      "type": "function"
    },
    {
      "inputs": [
        {
          "internalType": "address",
          "name": "to",
          "type": "address"
        },
        {
          "internalType": "uint256",
          "name": "tokenId",
          "type": "uint256"
        }
      ],
      "name": "approve",
      "outputs": [],
      "stateMutability": "nonpayable",
      "type": "function"
    },
    {
      "inputs": [
        {
          "internalType": "address",
          "name": "owner",
          "type": "address"
        }
      ],
      "name": "balanceOf",
      "outputs": [
        {
          "internalType": "uint256",
          "name": "",
          "type": "uint256"
        }
      ],
      "stateMutability": "view",
      "type": "function"
    },
    {
      "inputs": [
        {
          "internalType": "uint256",
          "name": "tokenId",
          "type": "uint256"
        }
      ],
      "name": "burn",
      "outputs": [],
      "stateMutability": "nonpayable",
      "type": "function"
    },
    {
      "inputs": [],
      "name": "eip712Domain",
      "outputs": [
        {
          "internalType": "bytes1",
          "name": "fields",
          "type": "bytes1"
        },
        {
          "internalType": "string",
          "name": "name",
          "type": "string"
        },
        {
          "internalType": "string",
          "name": "version",
          "type": "string"
        },
        {
          "internalType": "uint256",
          "name": "chainId",
          "type": "uint256"
        },
        {
          "internalType": "address",
          "name": "verifyingContract",
          "type": "address"
        },
        {
          "internalType": "bytes32",
          "name": "salt",
          "type": "bytes32"
        },
        {
          "internalType": "uint256[]",
          "name": "extensions",
          "type": "uint256[]"
        }
      ],
      "stateMutability": "view",
      "type": "function"
    },
    {
      "inputs": [
        {
          "internalType": "uint256",
          "name": "tokenId",
          "type": "uint256"
        }
      ],
      "name": "getApproved",
      "outputs": [
        {
          "internalType": "address",
          "name": "",
          "type": "address"
        }
      ],
      "stateMutability": "view",
      "type": "function"
    },
    {
      "inputs": [
        {
          "internalType": "address",
          "name": "owner",
          "type": "address"
        },
        {
          "internalType": "address",
          "name": "operator",
          "type": "address"
        }
      ],
      "name": "isApprovedForAll",
      "outputs": [
        {
          "internalType": "bool",
          "name": "",
          "type": "bool"
        }
      ],
      "stateMutability": "view",
      "type": "function"
    },
    {
      "inputs": [
        {
          "internalType": "address",
          "name": "to",
          "type": "address"
        },
        {
          "internalType": "uint256",
          "name": "tokenId",
          "type": "uint256"
        }
      ],
      "name": "mint",
      "outputs": [],
      "stateMutability": "nonpayable",
      "type": "function"
    },
    {
      "inputs": [
        {
          "internalType": "address",
          "name": "to",
          "type": "address"
        },
        {
          "internalType": "uint256",
          "name": "tokenId",
          "type": "uint256"
        },
        {
          "internalType": "uint256",
          "name": "deadline",
          "type": "uint256"
        },
        {
          "internalType": "bytes",
          "name": "signature",
          "type": "bytes"
        }
      ],
      "name": "mint",
      "outputs": [],
      "stateMutability": "nonpayable",
      "type": "function"
    },
    {
      "inputs": [],
      "name": "name",
      "outputs": [
        {
          "internalType": "string",
          "name": "",
          "type": "string"
        }
      ],
      "stateMutability": "view",
      "type": "function"
    },
    {
      "inputs": [
        {
          "internalType": "uint256",
          "name": "",
          "type": "uint256"
        }
      ],
      "name": "nonces",
      "outputs": [
        {
          "internalType": "uint256",
          "name": "",
          "type": "uint256"
        }
      ],
      "stateMutability": "view",
      "type": "function"
    },
    {
      "inputs": [],
      "name": "owner",
      "outputs": [
        {
          "internalType": "address",
          "name": "",
          "type": "address"
        }
      ],
      "stateMutability": "view",
      "type": "function"
    },
    {
      "inputs": [
        {
          "internalType": "uint256",
          "name": "tokenId",
          "type": "uint256"
        }
      ],
      "name": "ownerOf",
      "outputs": [
        {
          "internalType": "address",
          "name": "",
          "type": "address"
        }
      ],
      "stateMutability": "view",
      "type": "function"
    },
    {
      "inputs": [],
      "name": "renounceOwnership",
      "outputs": [],
      "stateMutability": "nonpayable",
      "type": "function"
    },
    {
      "inputs": [
        {
          "internalType": "address",
          "name": "from",
          "type": "address"
        },
        {
          "internalType": "address",
          "name": "to",
          "type": "address"
        },
        {
          "internalType": "uint256",
          "name": "tokenId",
          "type": "uint256"
        }
      ],
      "name": "safeTransferFrom",
      "outputs": [],
      "stateMutability": "nonpayable",
      "type": "function"
    },
    {
      "inputs": [
        {
          "internalType": "address",
          "name": "from",
          "type": "address"
        },
        {
          "internalType": "address",
          "name": "to",
          "type": "address"
        },
        {
          "internalType": "uint256",
          "name": "tokenId",
          "type": "uint256"
        },
        {
          "internalType": "bytes",
          "name": "data",
          "type": "bytes"
        }
      ],
      "name": "safeTransferFrom",
      "outputs": [],
      "stateMutability": "nonpayable",
      "type": "function"
    },
    {
      "inputs": [
        {
          "internalType": "address",
          "name": "operator",
          "type": "address"
        },
        {
          "internalType": "bool",
          "name": "approved",
          "type": "bool"
        }
      ],
      "name": "setApprovalForAll",
      "outputs": [],
      "stateMutability": "nonpayable",
      "type": "function"
    },
    {
      "inputs": [
        {
          "internalType": "bytes4",
          "name": "interfaceId",
          "type": "bytes4"
        }
      ],
      "name": "supportsInterface",
      "outputs": [
        {
          "internalType": "bool",
          "name": "",
          "type": "bool"
        }
      ],
      "stateMutability": "view",
      "type": "function"
    },
    {
      "inputs": [],
      "name": "symbol",
      "outputs": [
        {
          "internalType": "string",
          "name": "",
          "type": "string"
        }
      ],
      "stateMutability": "view",
      "type": "function"
    },
    {
      "inputs": [
        {
          "internalType": "uint256",
          "name": "tokenId",
          "type": "uint256"
        }
      ],
      "name": "tokenURI",
      "outputs": [
        {
          "internalType": "string",
          "name": "",
          "type": "string"
        }
      ],
      "stateMutability": "view",
      "type": "function"
    },
    {
      "inputs": [
        {
          "internalType": "address",
          "name": "from",
          "type": "address"
        },
        {
          "internalType": "address",
          "name": "to",
          "type": "address"
        },
        {
          "internalType": "uint256",
          "name": "tokenId",
          "type": "uint256"
        }
      ],
      "name": "transferFrom",
      "outputs": [],
      "stateMutability": "nonpayable",
      "type": "function"
    },
    {
      "inputs": [
        {
          "internalType": "address",
          "name": "from",
          "type": "address"
        },
        {
          "internalType": "address",
          "name": "to",
          "type": "address"
        },
        {
          "internalType": "uint256",
          "name": "tokenId",
          "type": "uint256"
        },
        {
          "internalType": "uint256",
          "name": "deadline",
          "type": "uint256"
        },
        {
          "internalType": "bytes",
          "name": "signature",
          "type": "bytes"
        }
      ],
      "name": "transferFrom",
      "outputs": [],
      "stateMutability": "nonpayable",
      "type": "function"
    },
    {
      "inputs": [
        {
          "internalType": "address",
          "name": "newOwner",
          "type": "address"
        }
      ],
      "name": "transferOwnership",
      "outputs": [],
      "stateMutability": "nonpayable",
      "type": "function"
    }
  ],
  "bytecode": "0x6101606040908082523462000451576200289b803803809162000023828562000455565b8339810190608081830312620004515780516001600160401b039290838111620004515781620000559184016200049c565b9160209182820151858111620004515781620000739184016200049c565b90868301518681116200045157606091620000909185016200049c565b9201516001600160a81b038116810362000451576001600160a01b039081169081156200043a575f548260018060a01b03198216175f55167f8be0079c531659141344cd1fd0a4f28419497f9722a3daafe3b4186f6b6457e05f80a38351908582116200028a576001918254908382811c921680156200042f575b868310146200035957601f91828111620003e7575b50808683821160011462000384575f9162000378575b505f19600383901b1c191690841b1783555b8151918783116200028a576002548481811c911680156200036d575b87821014620003595782811162000310575b5085918311600114620002aa579282939183925f946200029e575b50501b915f199060031b1c1916176002555b620001ae83620004f7565b91610120928352620001c08262000695565b93610140948552818151910120918260e05281815191012095610100968088524660a0528151928301937f8b73c3c69bb8fe3d512ecc4cf759cc79239f7b179b0ffacaa9a75d522b39400f85528284015260608301524660808301523060a083015260a0825260c0820195828710908711176200028a578590525190206080523060c0526120b79384620007e4853960805184611d9a015260a05184611e66015260c05184611d6b015260e05184611de901525183611e0f01525182610696015251816106c00152f35b634e487b7160e01b5f52604160045260245ffd5b015192505f8062000191565b90601f1983169160025f5283875f20935f5b8988838310620002f85750505010620002df575b505050811b01600255620001a3565b01515f1960f88460031b161c191690555f8080620002d0565b868601518855909601959485019487935001620002bc565b60025f52865f208380860160051c8201928987106200034f575b0160051c019085905b8281106200034357505062000176565b5f815501859062000333565b925081926200032a565b634e487b7160e01b5f52602260045260245ffd5b90607f169062000164565b90508701515f62000136565b859250601f19821690835f52885f20915f5b8a8c838310620003d1575050508311620003b8575b5050811b01835562000148565b8901515f1960f88460031b161c191690555f80620003ab565b8401518555899690940193928301920162000396565b845f52865f208380840160051c82019289851062000425575b0160051c019085905b8281106200041957505062000120565b5f815501859062000409565b9250819262000400565b91607f16916200010b565b8751631e4fbdf760e01b81525f6004820152602490fd5b5f80fd5b601f909101601f19168101906001600160401b038211908210176200028a57604052565b5f5b8381106200048b5750505f910152565b81810151838201526020016200047b565b81601f82011215620004515780516001600160401b0381116200028a5760405192620004d3601f8301601f19166020018562000455565b818452602082840101116200045157620004f4916020808501910162000479565b90565b805160209081811015620005745750601f8251116200053257808251920151908083106200052457501790565b825f19910360031b1b161790565b604490620005669260405193849263305a27a960e01b84528060048501528251928391826024870152868601910162000479565b601f01601f19168101030190fd5b906001600160401b0382116200028a57600754926001938481811c911680156200068a575b838210146200035957601f811162000653575b5081601f8411600114620005eb57509282939183925f94620005df575b50501b915f199060031b1c19161760075560ff90565b015192505f80620005c9565b919083601f19811660075f52845f20945f905b888383106200063857505050106200061f575b505050811b0160075560ff90565b01515f1960f88460031b161c191690555f808062000611565b858701518855909601959485019487935090810190620005fe565b60075f5284601f845f20920160051c820191601f860160051c015b8281106200067e575050620005ac565b5f81550185906200066e565b90607f169062000599565b805160209081811015620006c25750601f8251116200053257808251920151908083106200052457501790565b906001600160401b0382116200028a57600854926001938481811c91168015620007d8575b838210146200035957601f8111620007a1575b5081601f84116001146200073957509282939183925f946200072d575b50501b915f199060031b1c19161760085560ff90565b015192505f8062000717565b919083601f19811660085f52845f20945f905b888383106200078657505050106200076d575b505050811b0160085560ff90565b01515f1960f88460031b161c191690555f80806200075f565b8587015188559096019594850194879350908101906200074c565b60085f5284601f845f20920160051c820191601f860160051c015b828110620007cc575050620006fa565b5f8155018590620007bc565b90607f1690620006e756fe6080604090808252600480361015610015575f80fd5b5f3560e01c91826301ffc9a7146112ca5750816306fdde03146111fb578163081812fc14611196578163095ea7b314611040578163141a468c14610ffb57816323b872dd14610fdc57816340c10f1914610f9257816342842e0e14610f6a57816342966c6814610bbe578163605105f014610a755781636352211e14610a1c57816370a08231146109d2578163715018a614610938578163731133e9146107e65781638175db481461078e57816384b0196e1461065e5781638da5cb5b1461060d57816395d89b41146104f0578163a22cb465146103f3578163b88d4fde1461034f578163c87b56dd146102df578163e985e9c514610265578163f2fde38b14610183575063f76fc35e14610128575f80fd5b3461017f575f7ffffffffffffffffffffffffffffffffffffffffffffffffffffffffffffffffc36011261017f57602090517f5d886c76f2b9956f41dc5f7a0855f015c4d8d77370da5ce4bed466a8ea040b918152f35b5f80fd5b90503461017f5760207ffffffffffffffffffffffffffffffffffffffffffffffffffffffffffffffffc36011261017f576101bc611412565b906101c561190a565b73ffffffffffffffffffffffffffffffffffffffff8092169283156102365750505f54827fffffffffffffffffffffffff00000000000000000000000000000000000000008216175f55167f8be0079c531659141344cd1fd0a4f28419497f9722a3daafe3b4186f6b6457e05f80a3005b905f60249251917f1e4fbdf7000000000000000000000000000000000000000000000000000000008352820152fd5b823461017f57807ffffffffffffffffffffffffffffffffffffffffffffffffffffffffffffffffc36011261017f5760209061029f611412565b6102a761144c565b9073ffffffffffffffffffffffffffffffffffffffff8091165f5260068452825f2091165f52825260ff815f20541690519015158152f35b823461017f5760207ffffffffffffffffffffffffffffffffffffffffffffffffffffffffffffffffc36011261017f5761031c61034b92356118ab565b505f81516103298161152e565b528051906103368261152e565b5f8252519182916020835260208301906113b6565b0390f35b823461017f5760807ffffffffffffffffffffffffffffffffffffffffffffffffffffffffffffffffc36011261017f57610387611412565b61038f61144c565b6064359367ffffffffffffffff851161017f573660238601121561017f578401356103c56103bc826115f0565b945194856115af565b808452366024828701011161017f576020815f9260246103f198018388013785010152604435916116d6565b005b823461017f57807ffffffffffffffffffffffffffffffffffffffffffffffffffffffffffffffffc36011261017f5761042a611412565b906024359182151580930361017f5773ffffffffffffffffffffffffffffffffffffffff169283156104c25750335f526006602052805f20835f52602052805f207fffffffffffffffffffffffffffffffffffffffffffffffffffffffffffffff0081541660ff8416179055519081527f17307eab39ab6107e8899845ad3d59bd9653f200f220920489ca2b5937696c3160203392a3005b8360249251917f5b08ba18000000000000000000000000000000000000000000000000000000008352820152fd5b823461017f575f7ffffffffffffffffffffffffffffffffffffffffffffffffffffffffffffffffc36011261017f5780516002549091825f6105318461162a565b808352602094600190866001821691825f146105cd575050600114610572575b505061034b92916105639103856115af565b519282849384528301906113b6565b9085925060025f527f405787fa12a823e0f2b7631cc41b3ba8828b3321ca811111fa75cd3aa3bb5ace915f925b8284106105b55750505082010181610563610551565b8054848a01860152889550879490930192810161059f565b7fffffffffffffffffffffffffffffffffffffffffffffffffffffffffffffff00168682015292151560051b850190920192508391506105639050610551565b823461017f575f7ffffffffffffffffffffffffffffffffffffffffffffffffffffffffffffffffc36011261017f5760209073ffffffffffffffffffffffffffffffffffffffff5f54169051908152f35b823461017f575f7ffffffffffffffffffffffffffffffffffffffffffffffffffffffffffffffffc36011261017f57610732906106ba7f0000000000000000000000000000000000000000000000000000000000000000611e8c565b906106e47f0000000000000000000000000000000000000000000000000000000000000000611fc4565b61073f8251926106f38461152e565b5f845260209281519687967f0f00000000000000000000000000000000000000000000000000000000000000885260e0602089015260e08801906113b6565b91868303908701526113b6565b4660608501523060808501525f60a085015283810360c0850152602080845192838152019301915f5b82811061077757505050500390f35b835185528695509381019392810192600101610768565b823461017f575f7ffffffffffffffffffffffffffffffffffffffffffffffffffffffffffffffffc36011261017f57602090517f066b01d1d9822d4419c12cf2d4b5ff3277e1dc616369ba3393eba0a192a3effd8152f35b823461017f5760807ffffffffffffffffffffffffffffffffffffffffffffffffffffffffffffffffc36011261017f5761081e611412565b6024359160443560643567ffffffffffffffff811161017f576108449036908701611500565b8291924211610910576108d890865f5260096020526108cd855f205493865160208101917f5d886c76f2b9956f41dc5f7a0855f015c4d8d77370da5ce4bed466a8ea040b91835273ffffffffffffffffffffffffffffffffffffffff96878b168a84015260608301528a608083015260a082015260a081526108c581611593565b519020611a94565b93835f541694611ad5565b16036108e8576103f18383611a36565b8390517f5cd5d233000000000000000000000000000000000000000000000000000000008152fd5b8684517f0819bdcd000000000000000000000000000000000000000000000000000000008152fd5b3461017f575f7ffffffffffffffffffffffffffffffffffffffffffffffffffffffffffffffffc36011261017f5761096e61190a565b5f73ffffffffffffffffffffffffffffffffffffffff81547fffffffffffffffffffffffff000000000000000000000000000000000000000081168355167f8be0079c531659141344cd1fd0a4f28419497f9722a3daafe3b4186f6b6457e08280a3005b823461017f5760207ffffffffffffffffffffffffffffffffffffffffffffffffffffffffffffffffc36011261017f57602090610a15610a10611412565b61167b565b9051908152f35b823461017f5760207ffffffffffffffffffffffffffffffffffffffffffffffffffffffffffffffffc36011261017f5773ffffffffffffffffffffffffffffffffffffffff610a6d602093356118ab565b915191168152f35b823461017f5760a07ffffffffffffffffffffffffffffffffffffffffffffffffffffffffffffffffc36011261017f57610aad611412565b610ab561144c565b906044359260643560843567ffffffffffffffff811161017f57610adc9036908801611500565b8291924211610b9657610b5d90875f5260096020526108cd855f205493865160208101917f066b01d1d9822d4419c12cf2d4b5ff3277e1dc616369ba3393eba0a192a3effd835273ffffffffffffffffffffffffffffffffffffffff96878c168a84015260608301528b608083015260a082015260a081526108c581611593565b1603610b6e57506103f1935061195a565b8490517f5cd5d233000000000000000000000000000000000000000000000000000000008152fd5b8784517f0819bdcd000000000000000000000000000000000000000000000000000000008152fd5b90503461017f576020807ffffffffffffffffffffffffffffffffffffffffffffffffffffffffffffffffc36011261017f5781359073ffffffffffffffffffffffffffffffffffffffff90815f541633145f14610d6c57825f5260098152845f20918254927fffffffffffffffffffffffffffffffffffffffffffffffffffffffffffffffff93848114610d40575f9286949260016003930190558484528183528884205416918215958615610cf4575b50848452528682207fffffffffffffffffffffffff000000000000000000000000000000000000000081541690557fddf252ad1be2c89b69c2b068fc378daa952ba7f163c4a11628f55a4df523b3ef8280a4610cc757005b60249251917f7e273289000000000000000000000000000000000000000000000000000000008352820152fd5b610d2b865f52600560205260405f207fffffffffffffffffffffffff00000000000000000000000000000000000000008154169055565b8385528882528985209081540190555f610c6f565b6011877f4e487b71000000000000000000000000000000000000000000000000000000005f525260245ffd5b825f95929394955260098152815f208054907fffffffffffffffffffffffffffffffffffffffffffffffffffffffffffffffff91828114610f3e576001019055845f526003825283835f205416933315159081610e73575b5050906003915f959685610e27575b50508585525282207fffffffffffffffffffffffff000000000000000000000000000000000000000081541690557fddf252ad1be2c89b69c2b068fc378daa952ba7f163c4a11628f55a4df523b3ef8280a4005b610e5e885f52600560205260405f207fffffffffffffffffffffffff00000000000000000000000000000000000000008154169055565b85875282528386209081540190555f80610dd3565b81610eef575b5015610e86575f80610dc4565b82868686610ebb5760249251917f7e273289000000000000000000000000000000000000000000000000000000008352820152fd5b60449251917f177e802f00000000000000000000000000000000000000000000000000000000835233908301526024820152fd5b33861491508115610f20575b8115610f09575b505f610e79565b9050855f52600583523390845f205416145f610f02565b9050845f5260068352835f20335f52835260ff845f20541690610efb565b6011887f4e487b71000000000000000000000000000000000000000000000000000000005f525260245ffd5b823461017f576103f190610f7d36611486565b91925192610f8a8461152e565b5f84526116d6565b823461017f577ffffffffffffffffffffffffffffffffffffffffffffffffffffffffffffffffc36011261017f576103f1610fcb611412565b610fd361190a565b60243590611a36565b3461017f576103f1610fed36611486565b91610ff661190a565b61195a565b823461017f5760207ffffffffffffffffffffffffffffffffffffffffffffffffffffffffffffffffc36011261017f57602091355f5260098252805f20549051908152f35b823461017f57807ffffffffffffffffffffffffffffffffffffffffffffffffffffffffffffffffc36011261017f57611077611412565b9160243590611085826118ab565b9033151580611176575b80611141575b6111115750819073ffffffffffffffffffffffffffffffffffffffff809516948591167f8c5be1e5ebec7d5bd14f71427d1e84f3dd0314c0f7b2291e5b200ac8c7c3b9255f80a45f5260056020525f20907fffffffffffffffffffffffff00000000000000000000000000000000000000008254161790555f80f35b6024908451907fa9fbf51f0000000000000000000000000000000000000000000000000000000082523390820152fd5b5073ffffffffffffffffffffffffffffffffffffffff82165f526006602052835f20335f5260205260ff845f20541615611095565b503373ffffffffffffffffffffffffffffffffffffffff8316141561108f565b823461017f5760207ffffffffffffffffffffffffffffffffffffffffffffffffffffffffffffffffc36011261017f57602091356111d3816118ab565b505f526005825273ffffffffffffffffffffffffffffffffffffffff815f2054169051908152f35b823461017f575f7ffffffffffffffffffffffffffffffffffffffffffffffffffffffffffffffffc36011261017f578051905f9082600192600154936112408561162a565b90818452602095866001821691825f146105cd57505060011461126f57505061034b92916105639103856115af565b9085925060015f527fb10e2d527612073b26eecdfd717e6a320cf44b4afac2b0732d9fcbe2b7fa0cf6915f925b8284106112b25750505082010181610563610551565b8054848a01860152889550879490930192810161129c565b903461017f5760207ffffffffffffffffffffffffffffffffffffffffffffffffffffffffffffffffc36011261017f5735907fffffffff00000000000000000000000000000000000000000000000000000000821680920361017f57817f80ac58cd000000000000000000000000000000000000000000000000000000006020931490811561138c575b8115611362575b5015158152f35b7f01ffc9a7000000000000000000000000000000000000000000000000000000009150148361135b565b7f5b5e139f0000000000000000000000000000000000000000000000000000000081149150611354565b91908251928382525f5b8481106113fe5750507fffffffffffffffffffffffffffffffffffffffffffffffffffffffffffffffe0601f845f6020809697860101520116010190565b6020818301810151848301820152016113c0565b60043574ffffffffffffffffffffffffffffffffffffffffff8116810361017f5773ffffffffffffffffffffffffffffffffffffffff1690565b60243574ffffffffffffffffffffffffffffffffffffffffff8116810361017f5773ffffffffffffffffffffffffffffffffffffffff1690565b7ffffffffffffffffffffffffffffffffffffffffffffffffffffffffffffffffc606091011261017f5774ffffffffffffffffffffffffffffffffffffffffff90600435828116810361017f5773ffffffffffffffffffffffffffffffffffffffff80911692602435908116810361017f57169060443590565b9181601f8401121561017f5782359167ffffffffffffffff831161017f576020838186019501011161017f57565b6020810190811067ffffffffffffffff82111761154a57604052565b7f4e487b71000000000000000000000000000000000000000000000000000000005f52604160045260245ffd5b6040810190811067ffffffffffffffff82111761154a57604052565b60c0810190811067ffffffffffffffff82111761154a57604052565b90601f7fffffffffffffffffffffffffffffffffffffffffffffffffffffffffffffffe0910116810190811067ffffffffffffffff82111761154a57604052565b67ffffffffffffffff811161154a57601f017fffffffffffffffffffffffffffffffffffffffffffffffffffffffffffffffe01660200190565b90600182811c92168015611671575b602083101461164457565b7f4e487b71000000000000000000000000000000000000000000000000000000005f52602260045260245ffd5b91607f1691611639565b73ffffffffffffffffffffffffffffffffffffffff1680156116a6575f52600460205260405f205490565b60246040517f89c62b640000000000000000000000000000000000000000000000000000000081525f6004820152fd5b91926116e061190a565b6116eb84838561195a565b813b6116f8575b50505050565b9061176a94929173ffffffffffffffffffffffffffffffffffffffff80921694604051927f150b7a0200000000000000000000000000000000000000000000000000000000948585523360048601521660248401526044830152608060648301528180602097889360848301906113b6565b03815f885af15f9181611853575b506117ed575050503d5f146117e6573d611791816115f0565b9061179f60405192836115af565b81523d5f8483013e5b805192836117e157602483604051907f64a0ae920000000000000000000000000000000000000000000000000000000082526004820152fd5b019050fd5b60606117a8565b7fffffffff0000000000000000000000000000000000000000000000000000000091929450160361182257505f8080806116f2565b602490604051907f64a0ae920000000000000000000000000000000000000000000000000000000082526004820152fd5b9091508581813d83116118a4575b61186b81836115af565b8101031261017f57517fffffffff000000000000000000000000000000000000000000000000000000008116810361017f57905f611778565b503d611861565b805f52600360205273ffffffffffffffffffffffffffffffffffffffff60405f2054169081156118d9575090565b602490604051907f7e2732890000000000000000000000000000000000000000000000000000000082526004820152fd5b73ffffffffffffffffffffffffffffffffffffffff5f5416330361192a57565b60246040517f118cdaa7000000000000000000000000000000000000000000000000000000008152336004820152fd5b9073ffffffffffffffffffffffffffffffffffffffff9081811615611a0657611984848392611ba3565b1691826119bc57602484604051907f7e2732890000000000000000000000000000000000000000000000000000000082526004820152fd5b16918282036119ca57505050565b60649350604051927f64283d7b000000000000000000000000000000000000000000000000000000008452600484015260248301526044820152fd5b60246040517f64a0ae920000000000000000000000000000000000000000000000000000000081525f6004820152fd5b73ffffffffffffffffffffffffffffffffffffffff9182821615611a0657611a5d91611ba3565b16611a6457565b60246040517f73c6ac6e0000000000000000000000000000000000000000000000000000000081525f6004820152fd5b604290611a9f611d54565b90604051917f19010000000000000000000000000000000000000000000000000000000000008352600283015260228201522090565b6040515f94939092908360418214611b8a5750604014611b4557505f9150815b611afd575050565b7f7fffffffffffffffffffffffffffffff5d576e7357a4501ddfe92f46681b20a1606083015110611b2c575050565b6020929350816080915f935282805260015afa505f5190565b7f7fffffffffffffffffffffffffffffffffffffffffffffffffffffffffffffff8160208086940135918260ff1c601b01828601526040850137166060820152611af5565b9160408092508101355f1a602084015281830137611af5565b9073ffffffffffffffffffffffffffffffffffffffff918281169081151580918192611d42575b50611d1857825f52600960205260405f20938454947fffffffffffffffffffffffffffffffffffffffffffffffffffffffffffffffff95868114611ceb576001019055835f52600360205260405f2054169384611c9c575b50611c84575b815f52600360205260405f20817fffffffffffffffffffffffff0000000000000000000000000000000000000000825416179055827fddf252ad1be2c89b69c2b068fc378daa952ba7f163c4a11628f55a4df523b3ef5f80a490565b805f52600460205260405f2060018154019055611c28565b611cd3845f52600560205260405f207fffffffffffffffffffffffff00000000000000000000000000000000000000008154169055565b845f52600460205260405f209081540190555f611c22565b7f4e487b71000000000000000000000000000000000000000000000000000000005f52601160045260245ffd5b60046040517f6cb75e3f000000000000000000000000000000000000000000000000000000008152fd5b611d4c915061167b565b15155f611bca565b73ffffffffffffffffffffffffffffffffffffffff7f000000000000000000000000000000000000000000000000000000000000000016301480611e63575b15611dbc577f000000000000000000000000000000000000000000000000000000000000000090565b60405160208101907f8b73c3c69bb8fe3d512ecc4cf759cc79239f7b179b0ffacaa9a75d522b39400f82527f000000000000000000000000000000000000000000000000000000000000000060408201527f000000000000000000000000000000000000000000000000000000000000000060608201524660808201523060a082015260a0815260c0810181811067ffffffffffffffff82111761154a5760405251902090565b507f00000000000000000000000000000000000000000000000000000000000000004614611d93565b60ff8114611ee25760ff811690601f8211611eb85760405191611eae83611577565b8252602082015290565b60046040517fb3512b0c000000000000000000000000000000000000000000000000000000008152fd5b50604051600754815f611ef48361162a565b80835292602090600190818116908115611f815750600114611f22575b5050611f1f925003826115af565b90565b91509260075f527fa66cc928b5edb82af9bd49922954155ab7b0942694bea4ce44661d9a8736c688935f925b828410611f695750611f1f9450505081016020015f80611f11565b85548785018301529485019486945092810192611f4e565b905060209350611f1f9592507fffffffffffffffffffffffffffffffffffffffffffffffffffffffffffffff0091501682840152151560051b8201015f80611f11565b60ff8114611fe65760ff811690601f8211611eb85760405191611eae83611577565b50604051600854815f611ff88361162a565b80835292602090600190818116908115611f815750600114612022575050611f1f925003826115af565b91509260085f527ff3f7a9fe364faab93b216da50a3214154f22a0a2b415b23a84c8169e8b636ee3935f925b8284106120695750611f1f9450505081016020015f80611f11565b8554878501830152948501948694509281019261204e56fea26474726f6e582212201a288e171ff428299315bc151e60883918ebaf276738dd8f0944c6b6f1a158e564736f6c63430008170033",
  "source": "// SPDX-License-Identifier: MIT\n\npragma solidity 0.8.23;\n\nimport { Ownable } from \"@openzeppelin/contracts/access/Ownable.sol\";\nimport { ERC721 } from \"@openzeppelin/contracts/token/ERC721/ERC721.sol\";\nimport { ERC721Burnable } from \"@openzeppelin/contracts/token/ERC721/extensions/ERC721Burnable.sol\";\nimport { EIP712 } from \"@openzeppelin/contracts/utils/cryptography/EIP712.sol\";\nimport { ECDSA } from \"@1inch/solidity-utils/contracts/libraries/ECDSA.sol\";\n\n/**\n * @title KycNFT\n * @notice ERC721 token that allows only one NFT per address and includes transfer, mint and burn logic restricted to the contract owner.\n */\ncontract KycNFT is Ownable, ERC721Burnable, EIP712 {\n    /// @notice Thrown when an address attempts to own more than one NFT.\n    error OnlyOneNFTPerAddress();\n    /// @notice Thrown when signature is incorrect.\n    error BadSignature();\n    /// @notice Thrown when signature is expired.\n    error SignatureExpired();\n\n    bytes32 public constant MINT_TYPEHASH = keccak256(\"Mint(address to,uint256 nonce,uint256 tokenId,uint256 deadline)\");\n    bytes32 public constant TRANSFER_FROM_TYPEHASH = keccak256(\"TransferFrom(address to,uint256 nonce,uint256 tokenId,uint256 deadline)\");\n\n    /// @notice Nonce for each token ID.\n    mapping(uint256 => uint256) public nonces;\n\n    /**\n     * @notice Ensures that the provided signature is valid and signed by the contract owner.\n     * @param tokenId The ID of the token.\n     * @param signature The signature to be verified.\n     */\n    modifier onlyOwnerSignature(address to, uint256 tokenId, uint256 deadline, bytes calldata signature, bytes32 typeHash) {\n        if (block.timestamp > deadline) revert SignatureExpired();\n        bytes32 structHash = keccak256(abi.encode(typeHash, to, nonces[tokenId], tokenId, deadline));\n        bytes32 hash = _hashTypedDataV4(structHash);\n        if (owner() != ECDSA.recover(hash, signature)) revert BadSignature();\n        _;\n    }\n\n    /**\n     * @notice Constructor that initializes the ERC721 token with a name and a symbol, and sets the contract owner.\n     * @param name The name of the token.\n     * @param symbol The symbol of the token.\n     * @param owner The address of the owner of the contract.\n     */\n    constructor(string memory name, string memory symbol, string memory version, address owner)\n        ERC721(name, symbol) Ownable(owner) EIP712(name, version) {}\n\n    /**\n     * @notice Transfers a token to a specified address. Only the owner can call this function.\n     * @param from The address to transfer the token from.\n     * @param to The address to transfer the token to.\n     * @param tokenId The ID of the token to be transferred.\n     */\n    function transferFrom(address from, address to, uint256 tokenId) public override onlyOwner {\n        _transfer(from, to, tokenId);\n    }\n\n    /**\n     * @notice Transfers a token from one account to another by the designated token owner, using the contract owner's valid signature. Executable by anyone.\n     * @param from The address to transfer the token from.\n     * @param to The address to transfer the token to.\n     * @param tokenId The ID of the token to be transferred.\n     * @param deadline The deadline for the signature.\n     * @param signature The signature of the owner permitting the transfer.\n     */\n    function transferFrom(address from, address to, uint256 tokenId, uint256 deadline, bytes calldata signature) public onlyOwnerSignature(to, tokenId, deadline, signature, TRANSFER_FROM_TYPEHASH) {\n        _transfer(from, to, tokenId);\n    }\n\n    /**\n     * @dev Mints a new token to a specified address. Only the owner can call this function.\n     * @param to The address to mint the token to.\n     * @param tokenId The ID of the token to be minted.\n     */\n    function mint(address to, uint256 tokenId) external onlyOwner {\n        _mint(to, tokenId);\n    }\n\n    /**\n     * @notice See {mint} method. This function using a valid owner's signature instead of only owner permission.\n     * @param deadline The deadline for the signature.\n     * @param signature The signature of the owner permitting the mint.\n     */\n    function mint(address to, uint256 tokenId, uint256 deadline, bytes calldata signature) external onlyOwnerSignature(to, tokenId, deadline, signature, MINT_TYPEHASH) {\n        _mint(to, tokenId);\n    }\n\n    /**\n     * @dev Burns a specified token. The owner can burn any token.\n     * @param tokenId The ID of the token to be burned.\n     */\n    function burn(uint256 tokenId) public override {\n        if (_msgSender() == owner()) {\n            _burn(tokenId);\n        } else {\n            super.burn(tokenId);\n        }\n    }\n\n    function _update(address to, uint256 tokenId, address auth) internal override returns (address) {\n        if (to != address(0) && balanceOf(to) > 0) revert OnlyOneNFTPerAddress();\n        nonces[tokenId]++;\n        return super._update(to, tokenId, auth);\n    }\n}\n",
  "sourcePath": "contracts/KycNFT.sol",
  "compiler": {
    "name": "solc",
    "version": "0.8.23+commit.8ed33446.Emscripten.clang"
  },
  "schemaVersion": "2.0.1",
  "updatedAt": "2025-07-29T22:30:06.963Z"
}